{
  "contractName": "Election",
  "abi": [
    {
      "inputs": [],
      "stateMutability": "nonpayable",
      "type": "constructor"
    },
    {
      "anonymous": false,
      "inputs": [
        {
          "indexed": true,
          "internalType": "uint256",
          "name": "_candidateId",
          "type": "uint256"
        }
      ],
      "name": "votedEvent",
      "type": "event"
    },
    {
      "inputs": [
        {
          "internalType": "uint256",
          "name": "",
          "type": "uint256"
        }
      ],
      "name": "candidates",
      "outputs": [
        {
          "internalType": "uint256",
          "name": "id",
          "type": "uint256"
        },
        {
          "internalType": "string",
          "name": "name",
          "type": "string"
        },
        {
          "internalType": "uint256",
          "name": "voteCount",
          "type": "uint256"
        }
      ],
      "stateMutability": "view",
      "type": "function",
      "constant": true
    },
    {
      "inputs": [],
      "name": "candidatesCount",
      "outputs": [
        {
          "internalType": "uint256",
          "name": "",
          "type": "uint256"
        }
      ],
      "stateMutability": "view",
      "type": "function",
      "constant": true
    },
    {
      "inputs": [
        {
          "internalType": "uint256",
          "name": "",
          "type": "uint256"
        }
      ],
      "name": "candidatesNames",
      "outputs": [
        {
          "internalType": "string",
          "name": "",
          "type": "string"
        }
      ],
      "stateMutability": "view",
      "type": "function",
      "constant": true
    },
    {
      "inputs": [
        {
          "internalType": "address",
          "name": "",
          "type": "address"
        }
      ],
      "name": "voters",
      "outputs": [
        {
          "internalType": "bool",
          "name": "",
          "type": "bool"
        }
      ],
      "stateMutability": "view",
      "type": "function",
      "constant": true
    },
    {
      "inputs": [
        {
          "internalType": "string",
          "name": "_name",
          "type": "string"
        }
      ],
      "name": "addCandidate",
      "outputs": [],
      "stateMutability": "nonpayable",
      "type": "function"
    },
    {
      "inputs": [
        {
          "internalType": "string",
          "name": "_name",
          "type": "string"
        }
      ],
      "name": "removeCandidate",
      "outputs": [],
      "stateMutability": "nonpayable",
      "type": "function"
    },
    {
      "inputs": [],
      "name": "getCandidatesCount",
      "outputs": [
        {
          "internalType": "uint256",
          "name": "",
          "type": "uint256"
        }
      ],
      "stateMutability": "view",
      "type": "function",
      "constant": true
    },
    {
      "inputs": [],
      "name": "getCandidatesNames",
      "outputs": [
        {
          "internalType": "string[]",
          "name": "_candidateList",
          "type": "string[]"
        }
      ],
      "stateMutability": "view",
      "type": "function",
      "constant": true
    },
    {
      "inputs": [],
      "name": "getWinner",
      "outputs": [
        {
          "internalType": "string",
          "name": "",
          "type": "string"
        }
      ],
      "stateMutability": "view",
      "type": "function",
      "constant": true
    },
    {
      "inputs": [
        {
          "internalType": "uint256",
          "name": "_candidateId",
          "type": "uint256"
        }
      ],
      "name": "vote",
      "outputs": [],
      "stateMutability": "nonpayable",
      "type": "function"
    },
    {
      "inputs": [],
      "name": "resetVoteCount",
      "outputs": [],
      "stateMutability": "nonpayable",
      "type": "function"
    }
  ],
  "bytecode": "0x60806040523480156200001157600080fd5b50336000806101000a81548173ffffffffffffffffffffffffffffffffffffffff021916908373ffffffffffffffffffffffffffffffffffffffff160217905550620000986040518060400160405280600e81526020017f4d69636861656c204a6f7264616e0000000000000000000000000000000000008152506200012a60201b60201c565b620000de6040518060400160405280600b81526020017f4b6f626520427279616e740000000000000000000000000000000000000000008152506200012a60201b60201c565b620001246040518060400160405280600c81526020017f4c6562726f6e204a616d657300000000000000000000000000000000000000008152506200012a60201b60201c565b620004da565b60008054906101000a900473ffffffffffffffffffffffffffffffffffffffff1673ffffffffffffffffffffffffffffffffffffffff163373ffffffffffffffffffffffffffffffffffffffff16146200018357600080fd5b6000815111620001ca576040517f08c379a0000000000000000000000000000000000000000000000000000000008152600401620001c190620003bb565b60405180910390fd5b60036000815480929190620001df906200042e565b91905055506002604051806060016040528060035481526020018381526020016000815250908060018154018082558091505060019003906000526020600020906003020160009091909190915060008201518160000155602082015181600101908051906020019062000255929190620002a3565b506040820151816002015550506004819080600181540180825580915050600190039060005260206000200160009091909190915090805190602001906200029f929190620002a3565b5050565b828054620002b190620003f8565b90600052602060002090601f016020900481019282620002d5576000855562000321565b82601f10620002f057805160ff191683800117855562000321565b8280016001018555821562000321579182015b828111156200032057825182559160200191906001019062000303565b5b50905062000330919062000334565b5090565b5b808211156200034f57600081600090555060010162000335565b5090565b600062000362602a83620003dd565b91507f72656d6f766543616e646964617465204572726f723a20506c6561736520656e60008301527f7465722061206e616d65000000000000000000000000000000000000000000006020830152604082019050919050565b60006020820190508181036000830152620003d68162000353565b9050919050565b600082825260208201905092915050565b6000819050919050565b600060028204905060018216806200041157607f821691505b60208210811415620004285762000427620004ab565b5b50919050565b60006200043b82620003ee565b91507fffffffffffffffffffffffffffffffffffffffffffffffffffffffffffffffff8214156200047157620004706200047c565b5b600182019050919050565b7f4e487b7100000000000000000000000000000000000000000000000000000000600052601160045260246000fd5b7f4e487b7100000000000000000000000000000000000000000000000000000000600052602260045260246000fd5b611a8e80620004ea6000396000f3fe608060405234801561001057600080fd5b50600436106100a95760003560e01c80633477ee2e116100715780633477ee2e1461012c578063462e91ec1461015e5780638e7ea5b21461017a578063a3ec138d14610198578063bb9aa28f146101c8578063d8bd3807146101e6576100a9565b80630121b93f146100ae57806301c9605b146100ca578063039d6019146100e6578063185fd225146100f05780632d35a8a21461010e575b600080fd5b6100c860048036038101906100c39190611308565b610216565b005b6100e460048036038101906100df91906112c7565b61037c565b005b6100ee610760565b005b6100f861082f565b60405161010591906115f4565b60405180910390f35b610116610908565b6040516101239190611693565b60405180910390f35b61014660048036038101906101419190611308565b61090e565b604051610155939291906116ae565b60405180910390f35b610178600480360381019061017391906112c7565b6109d0565b005b610182610b3f565b60405161018f9190611631565b60405180910390f35b6101b260048036038101906101ad919061129e565b610dbe565b6040516101bf9190611616565b60405180910390f35b6101d0610dde565b6040516101dd9190611693565b60405180910390f35b61020060048036038101906101fb9190611308565b610de8565b60405161020d9190611631565b60405180910390f35b600160003373ffffffffffffffffffffffffffffffffffffffff1673ffffffffffffffffffffffffffffffffffffffff16815260200190815260200160002060009054906101000a900460ff161561026d57600080fd5b60008111801561027f57506003548111155b61028857600080fd5b60018060003373ffffffffffffffffffffffffffffffffffffffff1673ffffffffffffffffffffffffffffffffffffffff16815260200190815260200160002060006101000a81548160ff02191690831515021790555060026001826102ee9190611829565b81548110610325577f4e487b7100000000000000000000000000000000000000000000000000000000600052603260045260246000fd5b9060005260206000209060030201600201600081548092919061034790611943565b9190505550807ffff3c900d938d21d0990d786e819f29b8d05c1ef587b462b939609625b684b1660405160405180910390a250565b60008054906101000a900473ffffffffffffffffffffffffffffffffffffffff1673ffffffffffffffffffffffffffffffffffffffff163373ffffffffffffffffffffffffffffffffffffffff16146103d457600080fd5b6000815111610418576040517f08c379a000000000000000000000000000000000000000000000000000000000815260040161040f90611673565b60405180910390fd5b60008060008360405160200161042e91906115c6565b60405160208183030381529060405280519060200120905060005b6003548110156104ea57816002828154811061048e577f4e487b7100000000000000000000000000000000000000000000000000000000600052603260045260246000fd5b90600052602060002090600302016001016040516020016104af91906115dd565b6040516020818303038152906040528051906020012014156104d757809250600193506104ea565b80806104e290611943565b915050610449565b508261052b576040517f08c379a000000000000000000000000000000000000000000000000000000000815260040161052290611653565b60405180910390fd5b6003600081548092919061053e906118e7565b919050555060008290505b6003548110156106e057600260018261056291906117d3565b81548110610599577f4e487b7100000000000000000000000000000000000000000000000000000000600052603260045260246000fd5b9060005260206000209060030201600282815481106105e1577f4e487b7100000000000000000000000000000000000000000000000000000000600052603260045260246000fd5b906000526020600020906003020160008201548160000155600182018160010190805461060d90611911565b61061892919061100f565b5060028201548160020155905050600160028281548110610662577f4e487b7100000000000000000000000000000000000000000000000000000000600052603260045260246000fd5b90600052602060002090600302016000015461067e9190611829565b600282815481106106b8577f4e487b7100000000000000000000000000000000000000000000000000000000600052603260045260246000fd5b90600052602060002090600302016000018190555080806106d890611943565b915050610549565b506002805480610719577f4e487b7100000000000000000000000000000000000000000000000000000000600052603160045260246000fd5b6001900381819060005260206000209060030201600080820160009055600182016000610746919061109c565b60028201600090555050905561075a610e94565b50505050565b60008054906101000a900473ffffffffffffffffffffffffffffffffffffffff1673ffffffffffffffffffffffffffffffffffffffff163373ffffffffffffffffffffffffffffffffffffffff16146107b857600080fd5b60005b60028054905081101561082c57600060028281548110610804577f4e487b7100000000000000000000000000000000000000000000000000000000600052603260045260246000fd5b906000526020600020906003020160020181905550808061082490611943565b9150506107bb565b50565b60606004805480602002602001604051908101604052809291908181526020016000905b828210156108ff57838290600052602060002001805461087290611911565b80601f016020809104026020016040519081016040528092919081815260200182805461089e90611911565b80156108eb5780601f106108c0576101008083540402835291602001916108eb565b820191906000526020600020905b8154815290600101906020018083116108ce57829003601f168201915b505050505081526020019060010190610853565b50505050905090565b60035481565b6002818154811061091e57600080fd5b906000526020600020906003020160009150905080600001549080600101805461094790611911565b80601f016020809104026020016040519081016040528092919081815260200182805461097390611911565b80156109c05780601f10610995576101008083540402835291602001916109c0565b820191906000526020600020905b8154815290600101906020018083116109a357829003601f168201915b5050505050908060020154905083565b60008054906101000a900473ffffffffffffffffffffffffffffffffffffffff1673ffffffffffffffffffffffffffffffffffffffff163373ffffffffffffffffffffffffffffffffffffffff1614610a2857600080fd5b6000815111610a6c576040517f08c379a0000000000000000000000000000000000000000000000000000000008152600401610a6390611673565b60405180910390fd5b60036000815480929190610a7f90611943565b919050555060026040518060600160405280600354815260200183815260200160008152509080600181540180825580915050600190039060005260206000209060030201600090919091909150600082015181600001556020820151816001019080519060200190610af39291906110dc565b50604082015181600201555050600481908060018154018082558091505060019003906000526020600020016000909190919091509080519060200190610b3b9291906110dc565b5050565b606060006002600081548110610b7e577f4e487b7100000000000000000000000000000000000000000000000000000000600052603260045260246000fd5b906000526020600020906003020160405180606001604052908160008201548152602001600182018054610bb190611911565b80601f0160208091040260200160405190810160405280929190818152602001828054610bdd90611911565b8015610c2a5780601f10610bff57610100808354040283529160200191610c2a565b820191906000526020600020905b815481529060010190602001808311610c0d57829003601f168201915b50505050508152602001600282015481525050905060005b600354811015610db257816040015160028281548110610c8b577f4e487b7100000000000000000000000000000000000000000000000000000000600052603260045260246000fd5b9060005260206000209060030201600201541115610d9f5760028181548110610cdd577f4e487b7100000000000000000000000000000000000000000000000000000000600052603260045260246000fd5b906000526020600020906003020160405180606001604052908160008201548152602001600182018054610d1090611911565b80601f0160208091040260200160405190810160405280929190818152602001828054610d3c90611911565b8015610d895780601f10610d5e57610100808354040283529160200191610d89565b820191906000526020600020905b815481529060010190602001808311610d6c57829003601f168201915b5050505050815260200160028201548152505091505b8080610daa90611943565b915050610c42565b50806020015191505090565b60016020528060005260406000206000915054906101000a900460ff1681565b6000600354905090565b60048181548110610df857600080fd5b906000526020600020016000915090508054610e1390611911565b80601f0160208091040260200160405190810160405280929190818152602001828054610e3f90611911565b8015610e8c5780601f10610e6157610100808354040283529160200191610e8c565b820191906000526020600020905b815481529060010190602001808311610e6f57829003601f168201915b505050505081565b60008054906101000a900473ffffffffffffffffffffffffffffffffffffffff1673ffffffffffffffffffffffffffffffffffffffff163373ffffffffffffffffffffffffffffffffffffffff1614610eec57600080fd5b60005b600280549050811015610fb65760028181548110610f36577f4e487b7100000000000000000000000000000000000000000000000000000000600052603260045260246000fd5b906000526020600020906003020160010160048281548110610f81577f4e487b7100000000000000000000000000000000000000000000000000000000600052603260045260246000fd5b90600052602060002001908054610f9790611911565b610fa2929190611162565b508080610fae90611943565b915050610eef565b506004805480610fef577f4e487b7100000000000000000000000000000000000000000000000000000000600052603160045260246000fd5b60019003818190600052602060002001600061100b919061109c565b9055565b82805461101b90611911565b90600052602060002090601f01602090048101928261103d576000855561108b565b82601f1061104e578054855561108b565b8280016001018555821561108b57600052602060002091601f016020900482015b8281111561108a57825482559160010191906001019061106f565b5b50905061109891906111ef565b5090565b5080546110a890611911565b6000825580601f106110ba57506110d9565b601f0160209004906000526020600020908101906110d891906111ef565b5b50565b8280546110e890611911565b90600052602060002090601f01602090048101928261110a5760008555611151565b82601f1061112357805160ff1916838001178555611151565b82800160010185558215611151579182015b82811115611150578251825591602001919060010190611135565b5b50905061115e91906111ef565b5090565b82805461116e90611911565b90600052602060002090601f01602090048101928261119057600085556111de565b82601f106111a157805485556111de565b828001600101855582156111de57600052602060002091601f016020900482015b828111156111dd5782548255916001019190600101906111c2565b5b5090506111eb91906111ef565b5090565b5b808211156112085760008160009055506001016111f0565b5090565b600061121f61121a8461171d565b6116ec565b90508281526020810184848401111561123757600080fd5b6112428482856118a5565b509392505050565b60008135905061125981611a2a565b92915050565b600082601f83011261127057600080fd5b813561128084826020860161120c565b91505092915050565b60008135905061129881611a41565b92915050565b6000602082840312156112b057600080fd5b60006112be8482850161124a565b91505092915050565b6000602082840312156112d957600080fd5b600082013567ffffffffffffffff8111156112f357600080fd5b6112ff8482850161125f565b91505092915050565b60006020828403121561131a57600080fd5b600061132884828501611289565b91505092915050565b600061133d83836113c9565b905092915050565b600061135082611772565b61135a8185611795565b93508360208202850161136c8561174d565b8060005b858110156113a857848403895281516113898582611331565b945061139483611788565b925060208a01995050600181019050611370565b50829750879550505050505092915050565b6113c38161186f565b82525050565b60006113d48261177d565b6113de81856117a6565b93506113ee8185602086016118b4565b6113f781611a19565b840191505092915050565b600061140d8261177d565b61141781856117b7565b93506114278185602086016118b4565b61143081611a19565b840191505092915050565b60006114468261177d565b61145081856117c8565b93506114608185602086016118b4565b80840191505092915050565b6000815461147981611911565b61148381866117c8565b9450600182166000811461149e57600181146114af576114e2565b60ff198316865281860193506114e2565b6114b88561175d565b60005b838110156114da578154818901526001820191506020810190506114bb565b838801955050505b50505092915050565b60006114f8602a836117b7565b91507f72656d6f766543616e646964617465204572726f723a2043616e64696461746560008301527f206e6f7420666f756e64000000000000000000000000000000000000000000006020830152604082019050919050565b600061155e602a836117b7565b91507f72656d6f766543616e646964617465204572726f723a20506c6561736520656e60008301527f7465722061206e616d65000000000000000000000000000000000000000000006020830152604082019050919050565b6115c08161189b565b82525050565b60006115d2828461143b565b915081905092915050565b60006115e9828461146c565b915081905092915050565b6000602082019050818103600083015261160e8184611345565b905092915050565b600060208201905061162b60008301846113ba565b92915050565b6000602082019050818103600083015261164b8184611402565b905092915050565b6000602082019050818103600083015261166c816114eb565b9050919050565b6000602082019050818103600083015261168c81611551565b9050919050565b60006020820190506116a860008301846115b7565b92915050565b60006060820190506116c360008301866115b7565b81810360208301526116d58185611402565b90506116e460408301846115b7565b949350505050565b6000604051905081810181811067ffffffffffffffff82111715611713576117126119ea565b5b8060405250919050565b600067ffffffffffffffff821115611738576117376119ea565b5b601f19601f8301169050602081019050919050565b6000819050602082019050919050565b60008190508160005260206000209050919050565b600081519050919050565b600081519050919050565b6000602082019050919050565b600082825260208201905092915050565b600082825260208201905092915050565b600082825260208201905092915050565b600081905092915050565b60006117de8261189b565b91506117e98361189b565b9250827fffffffffffffffffffffffffffffffffffffffffffffffffffffffffffffffff0382111561181e5761181d61198c565b5b828201905092915050565b60006118348261189b565b915061183f8361189b565b9250828210156118525761185161198c565b5b828203905092915050565b60006118688261187b565b9050919050565b60008115159050919050565b600073ffffffffffffffffffffffffffffffffffffffff82169050919050565b6000819050919050565b82818337600083830152505050565b60005b838110156118d25780820151818401526020810190506118b7565b838111156118e1576000848401525b50505050565b60006118f28261189b565b915060008214156119065761190561198c565b5b600182039050919050565b6000600282049050600182168061192957607f821691505b6020821081141561193d5761193c6119bb565b5b50919050565b600061194e8261189b565b91507fffffffffffffffffffffffffffffffffffffffffffffffffffffffffffffffff8214156119815761198061198c565b5b600182019050919050565b7f4e487b7100000000000000000000000000000000000000000000000000000000600052601160045260246000fd5b7f4e487b7100000000000000000000000000000000000000000000000000000000600052602260045260246000fd5b7f4e487b7100000000000000000000000000000000000000000000000000000000600052604160045260246000fd5b6000601f19601f8301169050919050565b611a338161185d565b8114611a3e57600080fd5b50565b611a4a8161189b565b8114611a5557600080fd5b5056fea264697066735822122089f821161f658a7570504e7d647094617ef3789e78415739d0a3e821d71d9e6d64736f6c63430008000033",
  "immutableReferences": {},
  "source": "// SPDX-License-Identifier: MIT\n\npragma solidity ^0.8.0;\n\ncontract Election {\n\n    struct Candidate {\n        uint id;\n        string name;\n        uint voteCount;\n    }\n\n    //Address\n    address contractOwner;\n    //Winner\n    // Candidate winner;\n    //Voters\n    mapping(address => bool) public voters;\n    //Store candidates\n    Candidate[] public candidates;\n    //Total number of candidates\n    uint public candidatesCount;\n    //Candidates Names\n    string[] public candidatesNames;\n\n    event votedEvent (\n        uint indexed _candidateId\n    );\n\n    modifier onlyOwner {\n        require(msg.sender == contractOwner);\n        _;\n    }\n\n    constructor() {\n        contractOwner = msg.sender;\n        addCandidate(\"Michael Jordan\");\n        addCandidate(\"Kobe Bryant\");\n        addCandidate(\"Lebron James\");\n    }\n\n    function addCandidate(string memory _name) public onlyOwner {\n        require(bytes(_name).length > 0, \"removeCandidate Error: Please enter a name\");\n        candidatesCount++;\n        candidates.push(Candidate(candidatesCount, _name, 0));\n        candidatesNames.push(_name);\n    }\n\n    function removeCandidate(string memory _name) public onlyOwner {\n        require(bytes(_name).length > 0, \"removeCandidate Error: Please enter a name\");\n        bool foundCandidate;\n        uint256 index;\n        bytes32 encodePacked = keccak256(abi.encodePacked(_name));\n\n        for (uint256 i = 0; i < candidatesCount; i++) {\n            if (keccak256(abi.encodePacked(candidates[i].name)) == encodePacked) {\n                index = i;\n                foundCandidate = true;\n                break;\n            }\n        }\n\n        require(foundCandidate, \"removeCandidate Error: Candidate not found\");\n        candidatesCount--;\n\n        for (uint256 i = index; i < candidatesCount; i++) {\n            candidates[i] = candidates[i + 1];\n            candidates[i].id = candidates[i].id - 1;\n        }\n\n        candidates.pop();\n        updateNames();\n    }\n\n    function getCandidatesCount() public view returns(uint) {\n        return candidatesCount;\n    }\n\n    function getCandidatesNames() public view returns(string[] memory _candidateList) {\n        return candidatesNames;\n    }\n\n    function getWinner() public view returns(string memory) {\n        Candidate memory winner = candidates[0];\n        for (uint256 i = 0; i < candidatesCount; i++) {\n            if (candidates[i].voteCount > winner.voteCount) {\n                winner = candidates[i];\n            }\n        }\n        \n        return winner.name;\n    }\n\n    function vote(uint _candidateId) public {\n        require(!voters[msg.sender]);\n        require(_candidateId > 0 && _candidateId <= candidatesCount);\n        voters[msg.sender] = true;\n        candidates[_candidateId - 1].voteCount++;\n        emit votedEvent(_candidateId);\n    }\n\n    // Reset the President Vote Counts - onlyOwner\n    function resetVoteCount() public onlyOwner {\n        for (uint256 i = 0; i < candidates.length; i++) {\n            candidates[i].voteCount = 0;\n        }\n    }\n\n    function updateNames() private onlyOwner {\n        for (uint256 i = 0; i < candidates.length; i++) {\n            candidatesNames[i] = candidates[i].name;\n        } \n        candidatesNames.pop();\n    }\n\n}\n\n",
  "sourcePath": "E:\\Blockchain\\goat-voting\\contracts\\Election.sol",
  "compiler": {
    "name": "solc",
    "version": "0.8.0+commit.c7dfd78e.Emscripten.clang"
  },
  "schemaVersion": "3.4.14",
  "updatedAt": "2023-07-22T04:00:16.199Z",
  "networkType": "ethereum",
  "devdoc": {
    "kind": "dev",
    "methods": {},
    "version": 1
  },
  "userdoc": {
    "kind": "user",
    "methods": {},
    "version": 1
  }
}